:020000040800F2
:10000000000500200101000813150008EB1300088B
:1000100011150008D30600080D17000800000000A5
:10002000000000000000000000000000171500089C
:10003000D506000800000000151500081915000875
:100040001B0100081B0100081B0100081B01000820
:100050001B0100081B0100081B0100081B01000810
:100060001B0100081B0100081B0100081B01000800
:100070001B0100081B0100081B0100081B010008F0
:100080001B0100081B0100081B0100081B010008E0
:100090001B0100081B0100081B0100081B010008D0
:1000A0001B0100081B0100081B0100081B010008C0
:1000B0001B010008AD1500081B0100081B0100080A
:1000C0001B0100081B0100081B0100081B010008A0
:1000D0001B0100081B0100081B0100081B01000890
:1000E0001B0100081B0100081B010008DFF80CD0F1
:1000F00000F0BCFA00480047B922000800050020C3
:100100000648804706480047FEE7FEE7FEE7FEE7B1
:10011000FEE7FEE7FEE7FEE7FEE7FEE765150008FF
:10012000ED000008202A04DB203A21FA02F0002129
:10013000704721FA02F3D040C2F1200291400843F7
:1001400019467047D2B201E000F8012B491EFBD2DC
:1001500070470022F6E710B513460A4604461946D2
:10016000FFF7F0FF204610BD2DE9FE4F81EA0304A2
:1001700004F0004421F0004100944FF0000B23F004
:10018000004350EA01045ED052EA03045BD0C3F39B
:100190000A54C1F30A552C44A4F2F3340194A0FB91
:1001A0000254C1F3130141F48011C3F3130343F468
:1001B000801301FB024400FB034E840A970A44EAC1
:1001C000815447EA8357A4FB076802958D0A05FB13
:1001D00007854FEA932C04FB0C542705029D4FEA38
:1001E000065847EA1637B5EB08056EEB070C870E85
:1001F000920E47EA811742EA8312A7FB0201B6EB8F
:100200000B0164EB00042B0D43EA0C335E1844EB46
:100210001C50DA465146E7FB0201C5F313044FEACE
:100220000B3343EA14534FEA0432019C43EA0603BA
:10023000A4F10C040294009CCDE900B400F008F98C
:1002400003B0BDE8F08F00200146F9E72DE9F04D3D
:1002500081EA030404F0004B21F0004514464FF0FE
:10026000000A23F0004150EA050220D054EA0102BE
:100270001DD0C5F30A570246C5F31303C1F313009B
:10028000C1F30A5640F4801543F48013A7EB060827
:10029000101BD64608F2FD3873EB050002D308F1B7
:1002A000010801E092185B41B8F1000F03DA002069
:1002B0000146BDE8F08D00204FF4801106468446CB
:1002C0000EE0171B73EB050705D3121B63EB050349
:1002D00006434CEA010C49084FEA300092185B4192
:1002E00050EA0107EDD152EA030012D082EA04007D
:1002F00083EA0501084305D0101BAB4106D2012259
:10030000002306E000224FF0004302E06FF00102FC
:1003100053101AEB06004CEB085110EB0A0041EBAE
:100320000B01BDE8F04D00F084B870B521F000433A
:1003300003430CD0C1F30A550024D5EB040564EB4C
:100340000403D617AD1AB34102DB0020014670BD8D
:10035000201841EB025170BD0EB540F233410291BD
:100360000021CDE900110A460B4600F071F803B0F8
:1003700000BD000030B5041E71F1000404DB4FF035
:100380000044404264EB0101141E73F1000405DBDC
:100390001C464FF00043524263EB0403994208BFEE
:1003A000904230BD30B50B4601460020202201248A
:1003B00009E021FA02F59D4205D303FA02F5491B33
:1003C00004FA02F52844151EA2F10102F1DC30BD49
:1003D0002DE9F05F0546002092469B46884606467A
:1003E000814640241BE02846414647462246FFF707
:1003F00099FE53465A46C01A914110D311461846E9
:10040000224600F045F92D1A67EB01084F462246B7
:100410000120002100F03CF917EB00094E41201E9D
:10042000A4F10104DFDC484631462A464346BDE8D4
:10043000F09F10B5141E73F1000408DA401C41F15E
:10044000000192185B411A4301D120F0010010BD58
:100450002DE9F04D92469B4611B1B1FA81F202E0CE
:10046000B0FA80F22032904600F012F904460F46AE
:1004700040EA0A0041EA0B0153465A46084313D0AA
:10048000114653EA010019D0C8F140025046FFF767
:1004900049FE05460E4650465946424600F0F8F8D9
:1004A000084305D0012004E020463946BDE8F08D20
:1004B0000020054346EAE0762C4337430A9863055B
:1004C000E40AA0EB08000022FD0A44EA47540A307F
:1004D00002D500200146E9E7010510196941DDE96F
:1004E000084500196941BDE8F04DA2E72DE9FE4F2E
:1004F000804681EA0300C00F0C46009021F00041C5
:1005000023F00045B8EB0200A94105D24046214640
:1005100090461C460B46024623F00040104347D04D
:10052000270DC7F30A00C3F30A510290401A019045
:1005300040286BDAC3F3130040F4801B0098924606
:1005400020B10023D2EB030A63EB0B0B0198594651
:10055000C0F14002504600F09BF806460D4650465A
:100560005946019A00F0A3F810EB080061410024FD
:1005700087EA115284EAE7731A4340D0009A62B3C3
:10058000019A012A4FEA075215DC001B61EB0201B8
:100590004FF0004202EA0752CDE90042001C41F54B
:1005A000801132462B46FFF753FF03B0BDE8F08FB2
:1005B00040462146F9E7001B61EB0201001C41F5B2
:1005C000801300185B412018A2F5001747EB0301C8
:1005D00040EAD570B6196D4111E06D084FEA360654
:1005E00045EAC0754FEA0752001B61EB0201001C8F
:1005F00041F5801149084FEA300000195141324657
:100600002B4603B0BDE8F04FFFF713BF009801225F
:1006100040000023D0EB020263EBE0730098214618
:100620004FEAE074B8EB000061EB0401E9E783F006
:1006300000435BE781F0004158E7C1F30A52C1F380
:10064000130140F2FF3341F480119A4202DA002094
:100650000146704740F233439A42A2F2334202DC31
:100660005242FFF75FBD00F013B80000064C074D83
:1006700006E0E06840F0010394E807009847103472
:10068000AC42F6D3FFF736FD2C2400084C240008BA
:10069000202A04DB203A00FA02F100207047914042
:1006A000C2F1200320FA03F3194390407047202A37
:1006B00006DBCB17203A41FA02F043EAE07306E08A
:1006C00041FA02F3D040C2F120029140084319469A
:1006D0007047FEE770470000EFF3058141B14FF02E
:1006E000E02100280AD00A69D203FAD5401EF8E7B3
:1006F000034A516853685B1A8342FBD3704700007A
:10070000280000202DE9F84FDFF8B891002409F106
:10071000040A0AF1040B23460F270BF1040EC9E06B
:100720000125A5402A40AA427DD1674ED1F804C0D8
:10073000ACEB0608B44532D014DCBCF1030F3AD060
:1007400009DCBCF1000F2AD0BCF1010F1CD0BCF1B8
:10075000020F31D11DE0BCF1110F17D0BCF1120F07
:100760002AD119E0B8F5881F19D006DCB8F5803F0A
:1007700015D0B8F5801F1FD111E0B8F5001F0ED0BD
:10078000B8F5041F18D10AE0CB6815E0CB681B1D33
:1007900012E0CB6808330FE0CB680C330CE08B68B9
:1007A0002BB1012B4FF0080303D0456104E0042373
:1007B00002E0056100E00023FF2A01D8064601E0BF
:1007C00000F104064FEA840501D9A5F12005D6F809
:1007D000008007FA05FC28EA0C0803FA05F548EA48
:1007E0000508C6F800804D68ED0062D5374DAE694A
:1007F00046F00106AE61AD6924F0030605F001057F
:100800000095334D06EB050CDCF80850A607360FB3
:1008100007FA06F825EA0805DFF8B880404503D155
:100820004FF0000817E044E0DFF8AC80404502D10B
:100830004FF001080FE0DFF8A480404502D14FF0EF
:10084000020808E0DFF89880404502D14FF0030825
:1008500001E04FF0040808FA06F848EA0508CCF869
:1008600008804D68D9F80060ED034D4601D5164368
:1008700000E096432E604D68DAF80060AD035546FF
:1008800001D5164300E096432E604D68DBF800600A
:10089000ED025D4601D5164300E096432E604D689B
:1008A000DEF80060AD02754601D5164300E09643C0
:1008B0002E60641C0D682A46E5407FF431AFBDE828
:1008C000F88F0000000401400000111000100240E9
:1008D0000000014000080140000C014000100140F0
:1008E000001401400AB1016170470904FBE70000F0
:1008F00001484068704700002800002070B5174884
:100900004168491C4160016811B10168491E0160DC
:100910000024134E1CE000BF06EB84056968A9B1F2
:100920000878800712D5886810B1401E88600DD104
:100930006868D0E903219047686841688160696808
:100940000878C20702D120F002000870641CE4B2EB
:100950003078A042E0D800F0BAFE70BD2800002038
:10096000E4000020074810B5016841F01001016063
:10097000032000F075F8002000F006F800F024F8DD
:10098000002010BD0020024070B50D4D04464FF40C
:100990007A712878B1FBF0F00A490968B1FBF0F0F0
:1009A00000F0E2FA48B9102C07D200222146501E6E
:1009B00000F036F800206C6070BD012070BD0000B2
:1009C000300000203C0000200C4808B5816941F04F
:1009D00001018161816901F001010091C16941F06A
:1009E0008051C161C06900F08050009004484168A6
:1009F00021F0E06141F00071416008BD001002404B
:100A000000000140002809DB00F01F020121914095
:100A10004009800000F1E020C0F80011704700009C
:100A2000F0B40E4B1B680C46C3F30223C3F1070559
:100A3000042D00D90425191D072901D2002300E047
:100A4000DB1E012606FA05F1491E214099409E4011
:100A5000761E16403143F0BC00F06EBE0CED00E097
:100A6000064900F0070208684FF6FF03184040EA05
:100A70000220034A10430860704700000CED00E0BC
:100A80000000FA052DE9F0470F46050061D0434EFE
:100A9000306800F00700B84209D2306820F0070043
:100AA00038433060306800F00700B84251D1286800
:100AB0003B4C810712D5400703D5606840F4E060E5
:100AC00060602878000703D5606840F4605060607B
:100AD0006068A96820F0F000084360602878C007CB
:100AE00028D06868012810D02168022810D0890712
:100AF00000292EDA616821F0030101436160FFF7EC
:100B0000F7FE804641F288390DE021688903EFE75E
:100B10008901EDE7FFF7ECFEA0EB0801494502D99A
:100B20000320BDE8F0876068696800F00C00B0EB56
:100B3000810FEFD1306800F00700B8420BD9306860
:100B400020F0070038433060306800F00700B842FA
:100B500001D00120E5E72878400705D56068E968FD
:100B600020F4E060084360602878000706D56068DC
:100B7000296920F4605040EAC100606000F02EF85E
:100B80006168084AC1F30311515CC8400649086016
:100B900006480068FFF7F8FE0020C2E70020024088
:100BA00000100240142400083C0000203400002003
:100BB00001480068704700003C00002004480549D7
:100BC00000684968044AC1F30221515CC84070477B
:100BD0003C000020001002402424000812A185B02F
:100BE0000FC98DE80F0014A0144A006804905168E2
:100BF000134801F00C03042B10D0082B0ED1C1F3C5
:100C00008343C9031DF803000AD5516804AAC1F340
:100C10004041515C0A4A5043B0FBF1F005B07047C7
:100C200008494843FAE700000203040506070809DB
:100C30000A0B0C0D0E0F10100102000000100240F4
:100C400000127A0000093D002DE9F84F040070D031
:100C50002078C04DC00749D06868C0F381000128E2
:100C600007D06868C0F38100022809D16868C00312
:100C700006D52868800339D560680028E7D035E0BC
:100C80006068B0F5803F0BD010B1B0F5A02F11D047
:100C9000286820F480302860286820F4802002E052
:100CA000286840F480302860606890B1FFF720FE2B
:100CB00006460AE0286840F480202860F0E700BF7C
:100CC000FFF716FE801B642873D828688003F7D5C9
:100CD0000CE0FFF70DFE064605E000BFFFF708FE3B
:100CE000801B6428F0D828688003F7D420789A4EB7
:100CF00080074FF001094FF0000839D5686810F0FF
:100D00000C0F07D06868C0F38100022809D1686819
:100D1000C00306D42868800714D52069012808D1AB
:100D200010E02069B0B1C6F80090FFF7E1FD07467A
:100D300005E00AE1FFF7DCFDC01B0228C4D82868E3
:100D40008007F7D52868616920F0F80040EAC10003
:100D500028600DE0C6F80080FFF7CAFD074604E0F2
:100D6000FFF7C6FDC01B022823D828688007F7D4E8
:100D7000207800072CD57948A169D9B1C0F8009036
:100D8000FFF7B6FD074604E0FFF7B2FDC01B0228DF
:100D90000FD8686A8007F7D571484FF4FA51006898
:100DA000B0FBF1F0009000BF0098411E0091FAD214
:100DB0000EE080E0C0F80080FFF79AFD074604E0EF
:100DC000FFF796FDC01B022875D8686A8007F7D424
:100DD0002078400760D5E8690027C00008D4E8699A
:100DE00040F08050E861E869012700F080500090F1
:100DF0005C480168C90513D40168834641F48071D9
:100E00000160FFF775FD824606E000BFFFF770FD49
:100E1000A0EB0A0064284ED8DBF80000C005F5D529
:100E2000E06801280AD008B1052813D0286A20F00C
:100E300001002862286A20F0040002E0286A40F0DD
:100E400001002862E06841F2883B98B1FFF750FD4D
:100E500082460BE0286A40F004002862EEE700BFFB
:100E6000FFF746FDA0EB0A0159455AD8286A8007CA
:100E7000F6D50CE0FFF73CFD824605E0FFF738FDB4
:100E8000A0EB0A0159454CD8286A8007F6D41FB157
:100E9000E86920F08050E861E06988B36968C1F3CF
:100EA0008101022944D00228C6F8608004D0FFF7EF
:100EB0001FFD044638E034E0FFF71AFD074604E062
:100EC000FFF716FDC01B02282BD828688001F7D435
:100ED000206AB0F5803F05D16868A16820F4003031
:100EE00008436860D4E908010843696821F4741173
:100EF00008436860C6F86090FFF7FAFC044606E015
:100F000025E000BFFFF7F4FC001B022809D8286881
:100F10008001F7D51BE000BFFFF7EAFC001B0228A9
:100F200002D90320BDE8F88F28688001F4D40EE0D0
:100F30000128F7D06868226A00F48031914204D118
:100F4000616A00F47010884201D00120EAE70020B5
:100F5000E8E70000001002400000424280044242E4
:100F60003C0000200070004010B5401EB0F1807FB2
:100F700001D3012010BD4FF0E02460610F21601704
:100F800000F0DAFB0020A06107202061002010BDE6
:100F90007047704770B590F83C20012A19D00124A1
:100FA00000F83C4F0222427050F83C3C5A689D6861
:100FB00022F070060A684968324325F0800529430B
:100FC0005A6050F83C2C9160447000210170084632
:100FD00070BD022070BD000010B5017F012924D131
:100FE000124C217800294FF0000108D000F0E7F9F9
:100FF000A0606168884207D9A0EB01000CE000F016
:10100000DEF9606001200FE007D24FF6FF72A2EB1D
:101010000101084400F10100E060FFF7CFFDE16845
:10102000B0FBF1F020610020207010BD0000002016
:101030002DE9F041044690F83C000D4601283BD0D4
:10104000012684F83C60022084F83D009AB3042A0B
:1010500044D02068082A53D0D5E90027E968036AFC
:1010600023F480530362D0F81CC0036A2CF4407C44
:101070004CEA07274FF6FF7C27F470470CEA013152
:101080003943770323F4005307EA02321A43C1615C
:1010900002622068C16921F44061C1612068C169B0
:1010A000AA6841EA0221C16184F83D60002084F809
:1010B0003C00BDE8F08101E00220FAE7D5E900122A
:1010C000EB68206800F0BCFA2068816921F00C010F
:1010D000816120688169AA6811430FE0D5E9001297
:1010E000EB68206800F0D8FA2068816921F440613B
:1010F000816120688169AA6841EA02218161D3E7A0
:10110000D5E9002C2F7B016A21F480710162C1694D
:10111000036A21F0030141EA0C0121F0F00C3907C8
:101120004FF400774CEA116123F4007307EA0222BE
:101130001A43C16102622068C16921F00C01C161DA
:101140002068C169AA681143ADE710B5040003D057
:1011500094F83D0010B107E0012010BD002084F894
:101160003C00204600F00CF8022084F83D00211DD0
:10117000206800F021FA012084F83D00002010BD15
:1011800000B585B0002100910191029103910068A2
:101190001649884227D11648C16941F00201C16150
:1011A000C16901F002010491816941F00801816186
:1011B0008069694600F008000490102000900D48F6
:1011C000FFF7A0FA0C48416821F4406141F0E0616A
:1011D00041F400614160002211461D20FFF720FC10
:1011E0001D20FFF70FFC05B000BD0000000400400B
:1011F00000100240000C01400000014010B50268E0
:10120000044631B1042908D008291AD00C2908D184
:101210001BE0D06840F0020002E0D06840F004001B
:10122000D0600122206800F0FDF92068816801F09B
:101230000701062903D0016841F001010160002087
:1012400010BDD06840F00800EAE7D06840F0100018
:10125000E6E770B50446006801694FF00005C94330
:10126000890715D4C168C943890711D4E91E0161F2
:1012700001202077206880698007204602D0FFF790
:10128000ABFE04E000F098F8204600F096F82577D1
:1012900020680169C943490717D4C168C943490790
:1012A00013D46FF004010161022020772068806967
:1012B00010F4407F204602D0FFF78EFE04E000F0DD
:1012C0007BF8204600F079F8257720680169C9434A
:1012D000090716D4C168C943090712D46FF0080181
:1012E0000161042020772068C0698007204602D071
:1012F000FFF772FE04E000F05FF8204600F05DF8B2
:10130000257720680169C943C90617D4C168C94354
:10131000C90613D46FF010010161082020772068FE
:10132000C06910F4407F204602D0FFF755FE04E06C
:1013300000F042F8204600F040F825772068016967
:10134000C943C90708D1C168C943C90704D1891E67
:101350000161204600F032F820680169C94309069E
:1013600009D4C168C943090605D46FF08001016141
:101370002046FFF70DFE20680169C943490609D4DC
:10138000C168C943490605D46FF040010161204698
:1013900000F02AF820680169C94389060BD4C168A6
:1013A000C943890607D46FF0200101612046BDE8DA
:1013B0007040FFF7EEBD70BD704770477047024642
:1013C000002041B1042909D008290AD00C2901D1F3
:1013D0001068006C70471068406B70471068806B35
:1013E00070471068C06B70477047FEE72DE9F04307
:1013F00085B000242C4800940194029403948169E0
:1014000041F010018161816901F01001049181694D
:1014100041F020018161816901F02001049181691D
:1014200041F004018161816901F004010491816945
:1014300041F00801816180691C4F00F008004FF401
:1014400000550490002229463846FFF74BFADFF892
:1014500060800022F6214046FFF744FADFF85490FE
:10146000002220214846FFF73DFA0095022601257B
:101470000396CDE9015469463846FFF743F9F62053
:10148000CDE90005CDE9024669464046FFF73AF945
:101490002020CDE90005CDE9024669464846FFF720
:1014A00031F905B0BDE8F0830010024000100140A2
:1014B00000080140000C014010B586B0002413481C
:1014C000059404940094019402940F490394C0E994
:1014D00000144FF6FE71C0E9024104618461FFF718
:1014E00034FE049404A909480594FFF753FD012034
:1014F000CDE9004002940022694604480394FFF7B6
:1015000097FD06B010BD000000040040A4000020BC
:10151000FEE7704770477047FFF7F0B930B58FB0FE
:1015200028216846FEF715FE14210AA8FEF711FED1
:10153000022501200490009510200590002400044D
:10154000CDE9084007956846FFF77EFB0F200A901B
:10155000CDE90B540D9400210AA80E94FFF792FADE
:101560000FB030BD0D48016841F0010101604168D4
:101570000B4A1140416001680A4A1140016001684C
:1015800021F480210160416821F4FE0141604FF4A3
:101590001F0181600449C0030860704700100240C9
:1015A0000000FFF8FFFFF6FE08ED00E00148FFF73E
:1015B00050BE0000A4000020F0B50268164B174C86
:1015C000174D4FF08047984205D0B84203D0A04253
:1015D00001D0A84203D122F070064A6832439842F3
:1015E00005D0B84203D0A04201D0A84203D122F4D2
:1015F0004074CA6822434C6922F080022243026090
:101600008A68C2620A688262984201D109690163EC
:1016100001214161F0BD0000002C014000040040A8
:101620000008004010B501F01F030121046A994031
:101630008C430462016A9A401143016210BD0000AC
:1016400070B5046A24F0010404628469056A0F4ECF
:10165000B04208D0B0F1804F05D00D4EB04202D05C
:101660000C4EB04203D124F00304144301E044F0D3
:1016700001041A0724F0F00444EA126225F00A0378
:1016800001F00A0119438261016270BD002C014022
:10169000000400400008004030B5046A24F0100443
:1016A00004628469056A24F4407444EA022222F444
:1016B00070444FF6FF7202EA03322243A02425F061
:1016C000A00304EA011119438261016230BD704731
:1016D0000C48016821F080710160016841F080715F
:1016E00001600948016821F001010160016841F0D1
:1016F0000101016000214160416800BF00BF4068F6
:10170000401A7047FCED00E0001000E0FEE700002A
:101710000FB4084B10B504A902AA039800F0EEF824
:10172000044602A9002000F080FC204610BC5DF8B1
:1017300014FB00002B2000080907090E002804DB19
:1017400000F1E02080F80014704700F00F0000F175
:10175000E02080F8141D704702E008C8121F08C17D
:10176000002AFAD170477047002001E001C1121F22
:10177000002AFBD1704700002DE9FF5F82B00021F5
:10178000DDE90430020DDDF840B0034318D044F623
:101790001050A2F2FF3242431514119801281FD0B5
:1017A000A5EB0B00401C5FEA000A4FF000064E4F0D
:1017B000DFF83891B046504615D5CAF1000413E061
:1017C000119801244AA3012801D16FEA0B01029864
:1017D000119AC0E90031C0E9024206B0BDE8F09FAD
:1017E000CBF10000DFE704460021404A491842EBF4
:1017F0000450CDE9001012E0E00707D032463B4626
:1018000040464946FEF7B0FC8046894632463B4694
:1018100010461946FEF7A8FC06460F466410002C39
:10182000EAD1DDE90401DDE90023BAF1000F06DAAF
:10183000FEF79AFC42464B46FEF796FC05E0FEF7A3
:1018400005FD42464B46FEF701FD04460E460022CA
:10185000284BFEF78FFD03D84FF0FF30014607E01D
:101860000022254B20463146FEF740FEFEF7E5FEFE
:10187000102409E0002C0ADB0A220023FEF7A8FD51
:10188000039B30321A55641E50EA0102F2D1641CE7
:10189000039AC4F111031444119A012A03D00122BE
:1018A00008430DD10AE0084304D000204FF0110B8B
:1018B000119072E7A3EB0B056D1E0DE05B4504DD97
:1018C0004FF0000205F1010504E003DA4FF00002D9
:1018D000A5F10105002AECD002981199C0E9023166
:1018E000C0E9004579E70000000014400000F03F27
:1018F000300000000000F0430000E03F2DE9FF4F02
:1019000095B09B468946064600250FE2252877D1EB
:1019100000242746F84A0121059400E0044316F804
:10192000013F203B01FA03F01042F7D130782A281A
:1019300011D06FF02F033078A0F13002092A16D8A9
:10194000059A44F0020402EB820203EB42021044C7
:10195000761C0590EFE759F8042B0592002A03DA6C
:10196000504244F40054059044F00204761C307850
:101970002E2816D116F8010F44F004042A280DD0A1
:101980006FF02F023078A0F13003092B09D807EB54
:10199000870302EB4303C718761CF3E759F8047B6F
:1019A000761C30786C280FD006DC4C2817D06828BD
:1019B0000DD06A2814D104E0742810D07A280FD1F1
:1019C0000DE044F400140AE044F4801401E044F40F
:1019D00040147278824202D104F58014761C761C81
:1019E000307866280BD013DC582877D009DC002823
:1019F00075D04528F6D04628F4D047281AD19DE165
:101A000018E0632835D0642879D0652812D195E193
:101A1000702873D008DC6728F1D069286FD06E2851
:101A20000DD06F2806D1B5E073282CD0752875D05D
:101A3000782874D05A46179990476D1C75E1C4F305
:101A40000250022809D003280DD0D9F8001004282C
:101A50000DD00D6009F1040967E1D9F80010EA170B
:101A6000C1E90052F6E7D9F800100D80F2E70D70D9
:101A7000F0E719F8041B8DF8001000208DF8010024
:101A8000EA46012003E059F804AB4FF0FF3061074C
:101A90004FF0000102D40DE008F101018846B9427F
:101AA0000FDA8045F8DB1AF808100029F4D108E0B5
:101AB00008F1010188468142FADB1AF80810002972
:101AC000F6D105985B46A0EB080721463846179AE1
:101AD00000F094FA284400EB080507E04DE029E106
:101AE0000DE01AF8010B5A4617999047B8F1010812
:101AF000F7D25B4621463846179A13E142E00A22A4
:101B00000092C4F302524FF0000A022A08D059F89A
:101B100004CB032A4FEAEC710AD00DE029E02AE059
:101B200009F1070121F00702F2E802C1914609E03C
:101B30000FFA8CFC4FEAEC71042A03D14FFA8CFCAB
:101B40004FEAEC71002907DA0A460021DCF1000CAB
:101B500061EB02012D2202E0220504D52B228DF833
:101B60000420012203E0E20701D02022F7E790469B
:101B700059E00A2102E010220DE010214FF0000A86
:101B800000910BE010224FF0000A44F004040827F3
:101B9000009203E008224FF0000A0092C4F30252C0
:101BA000022A05D059F804CB0021032A08D009E005
:101BB00009F1070121F00702F2E802C1914605E0B0
:101BC0001FFA8CFC042A01D10CF0FF0C4FF0000826
:101BD000220728D5702806D0009B83F0100353EA13
:101BE0000A0305D00EE040228DF80420012208E00F
:101BF0005CEA010206D030228DF804208DF8050041
:101C000002229046009B83F0080353EA0A030AD19C
:101C10005CEA010201D1620705D530228DF804206B
:101C20004FF001087F1E582804D034A003900EA85E
:101C300002900DE036A0F9E753466046009AFEF7A1
:101C4000C7FB84460398825C0298401E0290027093
:101C50005CEA0100F0D1029806A9081A00F1200AF6
:101C6000600702D524F4803400E00127574502DDE7
:101C7000A7EB0A0000E0002000EB0A0100900598A5
:101C80004144401A0590E00306D45B462146179A6A
:101C9000059800F0B3F90544002706E001A85A466C
:101CA000C05D179990476D1C7F1C4745F6DBE0032C
:101CB0000CD55B462146179A059800F09FF905441C
:101CC00004E030205A46179990476D1C0099481E31
:101CD00000900029F5DC08E0029802995A46007845
:101CE000491C0291179990476D1CBAF10001AAF1A5
:101CF000010AF1DC65E100000928010030313233CE
:101D00003435363738396162636465660000000037
:101D10003031323334353637383941424344454621
:101D20000000000000F058F90544761C30780028C7
:101D30007FF4ECAD19B02846BDE8F08F620700D4FF
:101D4000062709F1070222F0070CFCE80223E1460E
:101D500003F000485FEA080C02D00FF2702C0DE08F
:101D60005FEA045C02D50FF2682C07E05FEAC47CEE
:101D700002D00FF2602C01E0AFF2700C4FF0FF3890
:101D800023F00043CDF850C065280CD006DC452870
:101D900009D046281DD047283DD13DE0662818D0FF
:101DA00067287ED138E00021112F01DB112000E0EF
:101DB000781CCDE9000106A90EA8FFF7DDFCDDE9DE
:101DC0000F010E9A03910021009207F1010A04917C
:101DD0004DE04FF000400097CDE9011006A90EA894
:101DE000FFF7CAFCDDE90F0203920E9B1199002256
:101DF000DDF80CA00093049211B9791C00EB010AE4
:101E0000B7EB0A0004D4C0F1FF3007F1010A0490D7
:101E1000AAEB0700019044E0012F00DA012700211E
:101E2000112F01DD112000E03846CDE9000106A99F
:101E30000EA8FFF7A1FCDDE90F010E9A0391002126
:101E400004910092BA4621070CD40399514500DA57
:101E50008A46BAF1010F05DD009AAAF10101515C31
:101E6000302908D0B84202DA10F1040F06DA012155
:101E7000CDE9011015E0AAF10101E9E7002805DC30
:101E8000049901440491AAEB000102E0411C514570
:101E900000DD8A460499401A401C01904FF0004032
:101EA0000290200704D40198504501DBCDF804804E
:101EB00000208DF84F0002980DF14F07B0F1004F50
:101EC00025D02B200E9002984FF0020800280CDA43
:101ED000404202902D200E9007E00A210298FEF762
:101EE00061FA3031029007F8011DB8F10001A8F144
:101EF0000108F2DC02980028EFD1791E0E980870D4
:101F0000307800F0200040F0450007F8020D12A8DC
:101F1000C01B00F107081498007800B1012000EB05
:101F20000A01019801EBE07105984144401A401EF6
:101F30000590E00306D45B462146179A059800F009
:101F40005DF805441498007818B15A4617999047DF
:101F50006D1CE00324D55B462146179A059800F0D6
:101F60004DF805441CE00498002807DBDDE9030177
:101F7000884203DD0098405C179901E017993020F2
:101F80005A469047049805F10105401C04900198B9
:101F9000401E019004D12E205A46179990476D1C7F
:101FA000BAF10001AAF1010ADDDC05E017F8010B26
:101FB0005A46179990476D1CB8F10001A8F1010825
:101FC000F4DC5B462146179A0598ABE62D0000002D
:101FD0002B000000200000002DE9F0410446002500
:101FE0001E461746880404D405E039462020B04731
:101FF0006D1C641EF9D52846BDE8F0812DE9F0413D
:10200000044600251E469046C80301D5302700E04F
:102010002027880404D505E041463846B0476D1CAA
:10202000641EF9D52846BDE8F0810A68531C0B6090
:10203000107070472DE9F04F364A0346106840F0A3
:102040000200106033494FF004080831C1F80080E5
:1020500010240C6020250D6040260E6080270F6044
:1020600000F0D0F8106840F0040010602A4AD8064A
:1020700001D5146002E04FF48010106098064FF410
:10208000001901D5156001E0C2F8009058064FF420
:10209000800A01D5166001E0C2F800A018064FF4CE
:1020A000000B01D5176001E0C2F800B000F0AAF8FB
:1020B000C1F800800C600D600E600F6000F0A2F8A7
:1020C0001448D0F800C04CF0040CC0F800C0D80789
:1020D00001D0146002E04FF480101060980701D521
:1020E000156001E0C2F80090580701D5166001E0C4
:1020F000C2F800A0180701D5176001E0C2F800B0CF
:1021000000F080F8C1F800800C600D600E600F6078
:10211000BDE8F08F0C080140100801402DE9F04F98
:1021200037490346022008604FF00409C1F80090C7
:1021300010240C6020250D6040260E6080270F6063
:1021400000F060F8DFF8B880A8F10808D8F800209F
:1021500042F00402C8F80020D8064FF4801A08F1B3
:10216000040201D5146001E0C2F800A098064FF403
:10217000001B01D5156001E0C2F800B0580601D57A
:10218000166002E04FF480001060180601D5176059
:1021900002E04FF40000106000F034F8C1F8009045
:1021A0000C600D600E600F6000F02CF8D8F800C0D5
:1021B0004CF0040CC8F800C0D80701D0146001E04E
:1021C000C2F800A0980701D5156001E0C2F800B080
:1021D000580701D5166002E04FF480001060180720
:1021E00001D5176002E04FF40000106000F00AF81B
:1021F000C1F800900C600D600E600F60BDE8F08FBC
:10220000140801404FF47A70401EFDD17047012838
:1022100005D0022805D1BF31C8B2FFF77FBF7F319B
:10222000FAE7704770B5064614460D46FA20FEF7E9
:1022300053FA0220FFF772FF3220FEF74DFA2E43C9
:10224000264346F02000FFF769FF3220FEF744FAEC
:102250000620FFF763FF3220FEF73EFA0E20FFF75D
:102260005DFF3220FEF738FA0C20FFF757FF3220CF
:10227000FEF732FA0120FFF751FFBDE870406420FD
:10228000FEF72ABA10B5044606E000BFFFF7BAFF12
:1022900014F8010BFFF7CEFE20780028F6D1BDE838
:1022A0001040FFF7AFBF10B51446FFF7B0FF204650
:1022B000BDE81040FFF7E6BF08B5FEF753FBFFF798
:1022C0002DF9FFF793F8FFF7F7F800213C48FEF7E8
:1022D00095FFFFF7FDF9002108220846FFF7A2FF4E
:1022E000DFF8E080DFF8E0A0DFF8E090384E4FF450
:1022F0007A770122202144464046FEF7F3FA052072
:10230000FEF7EAF9002220212046FEF7EBFA0097BB
:102310004C46D9F80450FEF74BFCB0FBFAF000999C
:102320004843009060680099401B8842FAD33069A6
:10233000FEF712F8274A284BFEF71CF829D2284945
:102340002648C6E906013069FEF706F804460D4640
:10235000224A234BFDF708FF22462B46FDF704FFD8
:102360000222FDF7E2FF1F4C1F4D22462B46FDF7D0
:10237000FBFE22462B46FDF7F7FE02460B460020E9
:102380001A49FDF763FF0022194BFDF7EDFEC6E980
:1023900008010B48D6E9082316A16438FFF7B8F9FD
:1023A0003846FEF799F9064A0121643A0846FFF7D4
:1023B0007AFF13A201210220FFF775FF99E70000C1
:1023C000A4000020000C014040420F00001000E07B
:1023D000000000209A9999999999B93F8DEDB5A07F
:1023E000F7C6B03E6E861BF0F92109400000F03FB1
:1023F00080842E414C203D20252E326620754800D9
:10240000494E44554354414E4345204D4554455251
:1024100000000000000000000000000001020304B2
:102420000607080900000000010203044C2400080C
:102430000000002040000000581700088C2400080D
:1024400040000020C00400006817000800000000E1
:10245000000000000000000000000000000000007C
:10246000000000000000000000000000000000006C
:10247000000000000000000000000000010000005B
:0C24800010000000000000000024F40028
:04000005080000ED02
:00000001FF
